{
  "contractName": "Faucet",
  "abi": [
    {
      "inputs": [],
      "name": "numOfFunders",
      "outputs": [
        {
          "internalType": "uint256",
          "name": "",
          "type": "uint256"
        }
      ],
      "stateMutability": "view",
      "type": "function",
      "constant": true
    },
    {
      "inputs": [],
      "name": "owner",
      "outputs": [
        {
          "internalType": "address",
          "name": "",
          "type": "address"
        }
      ],
      "stateMutability": "view",
      "type": "function",
      "constant": true
    },
    {
      "inputs": [],
      "name": "testNum",
      "outputs": [
        {
          "internalType": "uint256",
          "name": "",
          "type": "uint256"
        }
      ],
      "stateMutability": "view",
      "type": "function",
      "constant": true
    },
    {
      "inputs": [],
      "name": "trst5",
      "outputs": [
        {
          "internalType": "uint256",
          "name": "",
          "type": "uint256"
        }
      ],
      "stateMutability": "pure",
      "type": "function",
      "constant": true
    },
    {
      "stateMutability": "payable",
      "type": "receive",
      "payable": true
    },
    {
      "inputs": [],
      "name": "emitLog",
      "outputs": [
        {
          "internalType": "bytes32",
          "name": "",
          "type": "bytes32"
        }
      ],
      "stateMutability": "pure",
      "type": "function",
      "constant": true
    },
    {
      "inputs": [
        {
          "internalType": "address",
          "name": "newOwner",
          "type": "address"
        }
      ],
      "name": "transferOwnership",
      "outputs": [],
      "stateMutability": "nonpayable",
      "type": "function"
    },
    {
      "inputs": [],
      "name": "addFunds",
      "outputs": [],
      "stateMutability": "payable",
      "type": "function",
      "payable": true
    },
    {
      "inputs": [],
      "name": "test1",
      "outputs": [],
      "stateMutability": "nonpayable",
      "type": "function"
    },
    {
      "inputs": [],
      "name": "test2",
      "outputs": [],
      "stateMutability": "nonpayable",
      "type": "function"
    },
    {
      "inputs": [
        {
          "internalType": "uint256",
          "name": "withdrawAmount",
          "type": "uint256"
        }
      ],
      "name": "withdraw",
      "outputs": [],
      "stateMutability": "nonpayable",
      "type": "function"
    },
    {
      "inputs": [],
      "name": "getAllFunders",
      "outputs": [
        {
          "internalType": "address[]",
          "name": "",
          "type": "address[]"
        }
      ],
      "stateMutability": "view",
      "type": "function",
      "constant": true
    },
    {
      "inputs": [
        {
          "internalType": "uint8",
          "name": "index",
          "type": "uint8"
        }
      ],
      "name": "getFunderAtIndex",
      "outputs": [
        {
          "internalType": "address",
          "name": "",
          "type": "address"
        }
      ],
      "stateMutability": "view",
      "type": "function",
      "constant": true
    }
  ],
  "bytecode": "0x608060405234801561001057600080fd5b50336000806101000a81548173ffffffffffffffffffffffffffffffffffffffff021916908373ffffffffffffffffffffffffffffffffffffffff1602179055506103e8600181905550610cbd806100696000396000f3fe6080604052600436106100ab5760003560e01c80638da5cb5b116100645780638da5cb5b146101a1578063a26759cb146101cc578063ae28f1ed146101d6578063af7f2c9b14610201578063f2fde38b1461022c578063f42c13bf14610255576100b2565b80630a93cf33146100b75780632e1a7d4d146100f457806366e41cb71461011d5780636b59084d146101345780636fbbb55d1461014b57806383b969ab14610176576100b2565b366100b257005b600080fd5b3480156100c357600080fd5b506100de60048036038101906100d991906108bb565b610280565b6040516100eb91906109dc565b60405180910390f35b34801561010057600080fd5b5061011b60048036038101906101169190610892565b6102c0565b005b34801561012957600080fd5b50610132610357565b005b34801561014057600080fd5b506101496103e7565b005b34801561015757600080fd5b50610160610477565b60405161016d91906109f7565b60405180910390f35b34801561018257600080fd5b5061018b6105bd565b6040516101989190610a74565b60405180910390f35b3480156101ad57600080fd5b506101b66105cf565b6040516101c391906109dc565b60405180910390f35b6101d46105f3565b005b3480156101e257600080fd5b506101eb61071c565b6040516101f89190610a74565b60405180910390f35b34801561020d57600080fd5b50610216610722565b6040516102239190610a74565b60405180910390f35b34801561023857600080fd5b50610253600480360381019061024e9190610869565b610728565b005b34801561026157600080fd5b5061026a6107f9565b6040516102779190610a19565b60405180910390f35b6000600460008360ff16815260200190815260200160002060009054906101000a900473ffffffffffffffffffffffffffffffffffffffff169050919050565b8067016345785d8a000081111561030c576040517f08c379a000000000000000000000000000000000000000000000000000000000815260040161030390610a54565b60405180910390fd5b3373ffffffffffffffffffffffffffffffffffffffff166108fc839081150290604051600060405180830381858888f19350505050158015610352573d6000803e3d6000fd5b505050565b60008054906101000a900473ffffffffffffffffffffffffffffffffffffffff1673ffffffffffffffffffffffffffffffffffffffff163373ffffffffffffffffffffffffffffffffffffffff16146103e5576040517f08c379a00000000000000000000000000000000000000000000000000000000081526004016103dc90610a34565b60405180910390fd5b565b60008054906101000a900473ffffffffffffffffffffffffffffffffffffffff1673ffffffffffffffffffffffffffffffffffffffff163373ffffffffffffffffffffffffffffffffffffffff1614610475576040517f08c379a000000000000000000000000000000000000000000000000000000000815260040161046c90610a34565b60405180910390fd5b565b6060600060025467ffffffffffffffff8111156104bd577f4e487b7100000000000000000000000000000000000000000000000000000000600052604160045260246000fd5b6040519080825280602002602001820160405280156104eb5781602001602082028036833780820191505090505b50905060005b6002548110156105b5576004600082815260200190815260200160002060009054906101000a900473ffffffffffffffffffffffffffffffffffffffff16828281518110610568577f4e487b7100000000000000000000000000000000000000000000000000000000600052603260045260246000fd5b602002602001019073ffffffffffffffffffffffffffffffffffffffff16908173ffffffffffffffffffffffffffffffffffffffff168152505080806105ad90610b2c565b9150506104f1565b508091505090565b60006105c7610821565b50600a905090565b60008054906101000a900473ffffffffffffffffffffffffffffffffffffffff1681565b6000339050610600610821565b50600360008273ffffffffffffffffffffffffffffffffffffffff1673ffffffffffffffffffffffffffffffffffffffff16815260200190815260200160002060009054906101000a900460ff166107195760006002600081548092919061066790610b2c565b9190505590506001600360008473ffffffffffffffffffffffffffffffffffffffff1673ffffffffffffffffffffffffffffffffffffffff16815260200190815260200160002060006101000a81548160ff021916908315150217905550816004600083815260200190815260200160002060006101000a81548173ffffffffffffffffffffffffffffffffffffffff021916908373ffffffffffffffffffffffffffffffffffffffff160217905550505b50565b60015481565b60025481565b60008054906101000a900473ffffffffffffffffffffffffffffffffffffffff1673ffffffffffffffffffffffffffffffffffffffff163373ffffffffffffffffffffffffffffffffffffffff16146107b6576040517f08c379a00000000000000000000000000000000000000000000000000000000081526004016107ad90610a34565b60405180910390fd5b806000806101000a81548173ffffffffffffffffffffffffffffffffffffffff021916908373ffffffffffffffffffffffffffffffffffffffff16021790555050565b60007f48656c6c6f20576f726c64000000000000000000000000000000000000000000905090565b60006064905090565b60008135905061083981610c42565b92915050565b60008135905061084e81610c59565b92915050565b60008135905061086381610c70565b92915050565b60006020828403121561087b57600080fd5b60006108898482850161082a565b91505092915050565b6000602082840312156108a457600080fd5b60006108b28482850161083f565b91505092915050565b6000602082840312156108cd57600080fd5b60006108db84828501610854565b91505092915050565b60006108f083836108fc565b60208301905092915050565b61090581610ad9565b82525050565b61091481610ad9565b82525050565b600061092582610a9f565b61092f8185610ab7565b935061093a83610a8f565b8060005b8381101561096b57815161095288826108e4565b975061095d83610aaa565b92505060018101905061093e565b5085935050505092915050565b61098181610aeb565b82525050565b6000610994602583610ac8565b915061099f82610ba4565b604082019050919050565b60006109b7602383610ac8565b91506109c282610bf3565b604082019050919050565b6109d681610b15565b82525050565b60006020820190506109f1600083018461090b565b92915050565b60006020820190508181036000830152610a11818461091a565b905092915050565b6000602082019050610a2e6000830184610978565b92915050565b60006020820190508181036000830152610a4d81610987565b9050919050565b60006020820190508181036000830152610a6d816109aa565b9050919050565b6000602082019050610a8960008301846109cd565b92915050565b6000819050602082019050919050565b600081519050919050565b6000602082019050919050565b600082825260208201905092915050565b600082825260208201905092915050565b6000610ae482610af5565b9050919050565b6000819050919050565b600073ffffffffffffffffffffffffffffffffffffffff82169050919050565b6000819050919050565b600060ff82169050919050565b6000610b3782610b15565b91507fffffffffffffffffffffffffffffffffffffffffffffffffffffffffffffffff821415610b6a57610b69610b75565b5b600182019050919050565b7f4e487b7100000000000000000000000000000000000000000000000000000000600052601160045260246000fd5b7f4f6e6c7920746865206f776e65722063616e2063616c6c20746869732066756e60008201527f6374696f6e000000000000000000000000000000000000000000000000000000602082015250565b7f43616e6e6f74207769746864726177206d6f7265207468616e20302e3120657460008201527f6865720000000000000000000000000000000000000000000000000000000000602082015250565b610c4b81610ad9565b8114610c5657600080fd5b50565b610c6281610b15565b8114610c6d57600080fd5b50565b610c7981610b1f565b8114610c8457600080fd5b5056fea2646970667358221220a26271b654af523b23a774c75b415177f6d6badd51fb57006aebda82cfd3da2f64736f6c63430008040033",
  "immutableReferences": {},
  "source": "// SPDX-License-Identifier: MIT\npragma solidity >=0.4.22 <0.9.0;\n\nimport \"./Owned.sol\";\nimport \"./Logger.sol\";\nimport \"./IFaucet.sol\";\n\ncontract Faucet is Owned, Logger, IFaucet {\n\n    uint public numOfFunders;\n\n   mapping(address => bool) private funders;\n   mapping(uint => address) private lutFunders;\n\n    modifier limitWithdraw(uint withdrawAmount) {\n        require(\n            withdrawAmount <= 100000000000000000, \n            \"Cannot withdraw more than 0.1 ether\"\n        );\n        _;\n    }\n\n   receive() external payable {}\n\n    function emitLog() public override pure returns(bytes32) {\n        return \"Hello World\";\n    }\n\n   function transferOwnership(address newOwner) external onlyOwner {\n       owner = newOwner;\n   } \n\n   function addFunds() override external payable {\n       address funder = msg.sender;\n       test3();\n\n       if(!funders[funder]) {\n            uint index = numOfFunders++;\n           funders[funder] = true;\n           lutFunders[index] = funder;\n       }\n   }\n\n   function test1() external onlyOwner {\n       // some managing stuff that only admin should have access to\n   }\n\n   function test2() external onlyOwner {\n       // some managing stuff that only admin should have access to\n   }\n\n   function withdraw(uint withdrawAmount) override external limitWithdraw(withdrawAmount) {\n       payable(msg.sender).transfer(withdrawAmount);\n       \n   }\n\n   function getAllFunders() external view returns (address[] memory) {\n       address[] memory _funders = new address[](numOfFunders);\n\n       for (uint i = 0; i < numOfFunders; i++) {\n           _funders[i] = lutFunders[i];\n       }\n\n       return _funders;  \n\n   }\n  \n    function getFunderAtIndex(uint8 index) external view returns(address) {\n        return lutFunders[index];\n    }\n\n}  \n// truffle console\n// const instance = await Faucet.deployed()\n//instance.addFunds()\n// instance.addFunds({from: accounts[0], value: \"2000000000000000000\"})\n\n// instance.withdraw(\"500000000000000000\", {from: accounts[1]})\n\n\n    //this is a special function\n    //It is called when you make a transaction (tx) that doesnt specify a function name to call\n\n    //External functions are part of the contract interface \n    //which means they can be claled from other contract and other tx\n\n    // Block info\n    // Nonce - A hash that when combined with the minHash proves that the\n    // block has gone through proof of work (POW) \n    // 8 bytes = 64 bits\n\n\n    //pure or view - read-only call, no gas fee\n    //  view - Indicates that the function will not alter the storage state in any way\n    // pure - Even stricter, indicates that it won't even read the storage state\n\n    //Transactions (can generate state changes and require a gas fee)\n    // read-only call, no gas fee\n\n    //To talk to the node on the network you can make JSON-RPC calls\n\n    ",
  "sourcePath": "/Users/Glen/Desktop/Practice/Courses/Udemy/Filip Jerga/faucet/contracts/FaucetContract.sol",
  "compiler": {
    "name": "solc",
    "version": "0.8.4+commit.c7e474f2.Emscripten.clang"
  },
  "schemaVersion": "3.4.3",
  "updatedAt": "2021-11-24T02:23:01.306Z",
  "networkType": "ethereum",
  "devdoc": {
    "kind": "dev",
    "methods": {},
    "version": 1
  },
  "userdoc": {
    "kind": "user",
    "methods": {},
    "version": 1
  }
}