{
  "contractName": "Storage",
  "abi": [
    {
      "inputs": [],
      "stateMutability": "nonpayable",
      "type": "constructor"
    },
    {
      "inputs": [],
      "name": "a",
      "outputs": [
        {
          "internalType": "uint8",
          "name": "",
          "type": "uint8"
        }
      ],
      "stateMutability": "view",
      "type": "function",
      "constant": true
    },
    {
      "inputs": [
        {
          "internalType": "uint256",
          "name": "",
          "type": "uint256"
        }
      ],
      "name": "aa",
      "outputs": [
        {
          "internalType": "uint256",
          "name": "",
          "type": "uint256"
        }
      ],
      "stateMutability": "view",
      "type": "function",
      "constant": true
    },
    {
      "inputs": [],
      "name": "b",
      "outputs": [
        {
          "internalType": "uint16",
          "name": "",
          "type": "uint16"
        }
      ],
      "stateMutability": "view",
      "type": "function",
      "constant": true
    },
    {
      "inputs": [
        {
          "internalType": "address",
          "name": "",
          "type": "address"
        }
      ],
      "name": "bb",
      "outputs": [
        {
          "internalType": "uint256",
          "name": "",
          "type": "uint256"
        }
      ],
      "stateMutability": "view",
      "type": "function",
      "constant": true
    },
    {
      "inputs": [],
      "name": "c",
      "outputs": [
        {
          "internalType": "address",
          "name": "",
          "type": "address"
        }
      ],
      "stateMutability": "view",
      "type": "function",
      "constant": true
    },
    {
      "inputs": [
        {
          "internalType": "uint256",
          "name": "",
          "type": "uint256"
        }
      ],
      "name": "cc",
      "outputs": [
        {
          "internalType": "uint256",
          "name": "",
          "type": "uint256"
        }
      ],
      "stateMutability": "view",
      "type": "function",
      "constant": true
    },
    {
      "inputs": [],
      "name": "e",
      "outputs": [
        {
          "internalType": "uint64",
          "name": "",
          "type": "uint64"
        }
      ],
      "stateMutability": "view",
      "type": "function",
      "constant": true
    },
    {
      "inputs": [],
      "name": "f",
      "outputs": [
        {
          "internalType": "uint256",
          "name": "",
          "type": "uint256"
        }
      ],
      "stateMutability": "view",
      "type": "function",
      "constant": true
    },
    {
      "inputs": [],
      "name": "g",
      "outputs": [
        {
          "internalType": "uint8",
          "name": "",
          "type": "uint8"
        }
      ],
      "stateMutability": "view",
      "type": "function",
      "constant": true
    },
    {
      "inputs": [],
      "name": "h",
      "outputs": [
        {
          "internalType": "uint56",
          "name": "",
          "type": "uint56"
        }
      ],
      "stateMutability": "view",
      "type": "function",
      "constant": true
    }
  ],
  "bytecode": "0x60806040526007600360006101000a81548160ff021916908360ff160217905550600a600360016101000a81548161ffff021916908361ffff16021790555073d39f21aa3c0f6a050885e0b59e144f246b68294a6003806101000a81548173ffffffffffffffffffffffffffffffffffffffff021916908373ffffffffffffffffffffffffffffffffffffffff1602179055506001600360176101000a81548160ff021916908315150217905550600f600360186101000a81548167ffffffffffffffff021916908367ffffffffffffffff16021790555060c86004556028600560006101000a81548160ff021916908360ff160217905550610315600560016101000a81548166ffffffffffffff021916908366ffffffffffffff16021790555034801561012d57600080fd5b506002600190806001815401808255809150506001900390600052602060002001600090919091909150556002600a908060018154018082558091505060019003906000526020600020016000909190919091505560026064908060018154018082558091505060019003906000526020600020016000909190919091505560046000806002815260200190815260200160002081905550600a600080600381526020019081526020016000208190555060646001600073d39f21aa3c0f6a050885e0b59e144f246b68294a73ffffffffffffffffffffffffffffffffffffffff1673ffffffffffffffffffffffffffffffffffffffff1681526020019081526020016000208190555061054a806102466000396000f3fe608060405234801561001057600080fd5b506004361061009e5760003560e01c8063c3da42b811610066578063c3da42b81461014b578063e1d9bbbd14610169578063e2179b8e14610199578063eb366c13146101b7578063ffae15ba146101e75761009e565b80630dbe671f146100a357806326121ff0146100c15780634df7e3d0146100df5780637323febe146100fd578063b8c9d3651461012d575b600080fd5b6100ab610205565b6040516100b8919061044d565b60405180910390f35b6100c9610218565b6040516100d691906103fc565b60405180910390f35b6100e761021e565b6040516100f491906103e1565b60405180910390f35b61011760048036038101906101129190610343565b610232565b60405161012491906103fc565b60405180910390f35b61013561024a565b6040516101429190610417565b60405180910390f35b610153610263565b60405161016091906103c6565b60405180910390f35b610183600480360381019061017e919061031a565b610287565b60405161019091906103fc565b60405180910390f35b6101a161029f565b6040516101ae919061044d565b60405180910390f35b6101d160048036038101906101cc9190610343565b6102b2565b6040516101de91906103fc565b60405180910390f35b6101ef6102d6565b6040516101fc9190610432565b60405180910390f35b600360009054906101000a900460ff1681565b60045481565b600360019054906101000a900461ffff1681565b60006020528060005260406000206000915090505481565b600560019054906101000a900466ffffffffffffff1681565b60038054906101000a900473ffffffffffffffffffffffffffffffffffffffff1681565b60016020528060005260406000206000915090505481565b600560009054906101000a900460ff1681565b600281815481106102c257600080fd5b906000526020600020016000915090505481565b600360189054906101000a900467ffffffffffffffff1681565b6000813590506102ff816104e6565b92915050565b600081359050610314816104fd565b92915050565b60006020828403121561032c57600080fd5b600061033a848285016102f0565b91505092915050565b60006020828403121561035557600080fd5b600061036384828501610305565b91505092915050565b61037581610468565b82525050565b6103848161047a565b82525050565b610393816104a8565b82525050565b6103a2816104b2565b82525050565b6103b1816104c5565b82525050565b6103c0816104d9565b82525050565b60006020820190506103db600083018461036c565b92915050565b60006020820190506103f6600083018461037b565b92915050565b6000602082019050610411600083018461038a565b92915050565b600060208201905061042c6000830184610399565b92915050565b600060208201905061044760008301846103a8565b92915050565b600060208201905061046260008301846103b7565b92915050565b600061047382610488565b9050919050565b600061ffff82169050919050565b600073ffffffffffffffffffffffffffffffffffffffff82169050919050565b6000819050919050565b600066ffffffffffffff82169050919050565b600067ffffffffffffffff82169050919050565b600060ff82169050919050565b6104ef81610468565b81146104fa57600080fd5b50565b610506816104a8565b811461051157600080fd5b5056fea264697066735822122023242d6eb3357ecc98d2769c9132d32ff5cbe046888072e0ea4774494656d0a264736f6c63430008040033",
  "immutableReferences": {},
  "source": "// SPDX-License-Identifier: MIT\npragma solidity >=0.4.22 <0.9.0;\n\ncontract Storage {\n\n    // keccak256(key . slot)\n    mapping(uint => uint) public aa; //slot 0\n    mapping(address => uint) public bb; //slot 1\n\n    // keccak256(slot) + index of the item\n    uint[] public cc; //slot 2\n   \n    uint8 public a = 7;  // 1 byte\n    uint16 public b = 10;  // 2 bytes\n    address public c = 0xD39f21aA3C0F6A050885E0B59E144F246B68294a;  //20 bytes\n    bool d = true;  // 1 byte\n    uint64 public e = 15;  //8 bytes\n    // 32 bytes, all values will be stored in slot 3\n\n    // TEST - web3.eth.getStorageAt(\"0x0EFf4899A155d8E087eFB1bF8F6B37391AdB726B\", 0) results in: \n    // 0x 0f 01 d39f21aa3c0f6a050885e0b59e144f246b68294a 000a 07\n\n\n    uint256 public f = 200;  //32 bytes  ->  slot 4\n\n\n    uint8 public g = 40;  // 1 byte  -> slot 5\n\n    uint56 public h = 789; //32 bytes  -> slot 6\n\n    constructor() {\n        cc.push(1);\n        cc.push(10);\n        cc.push(100);\n\n        aa[2] = 4;\n        aa[3] = 10;\n        bb[0xD39f21aA3C0F6A050885E0B59E144F246B68294a] = 100;\n    }\n}\n\n",
  "sourcePath": "/Users/Glen/Desktop/Practice/Courses/Udemy/Filip Jerga/faucet/contracts/Storage.sol",
  "compiler": {
    "name": "solc",
    "version": "0.8.4+commit.c7e474f2.Emscripten.clang"
  },
  "schemaVersion": "3.4.3",
  "updatedAt": "2021-11-24T02:23:04.828Z",
  "networkType": "ethereum",
  "devdoc": {
    "kind": "dev",
    "methods": {},
    "version": 1
  },
  "userdoc": {
    "kind": "user",
    "methods": {},
    "version": 1
  }
}